{
  "contractName": "CryptAnimal",
  "abi": [
    {
      "anonymous": false,
      "inputs": [
        {
          "indexed": true,
          "internalType": "address",
          "name": "owner",
          "type": "address"
        },
        {
          "indexed": true,
          "internalType": "address",
          "name": "approved",
          "type": "address"
        },
        {
          "indexed": true,
          "internalType": "uint256",
          "name": "tokenId",
          "type": "uint256"
        }
      ],
      "name": "Approval",
      "type": "event"
    },
    {
      "anonymous": false,
      "inputs": [
        {
          "indexed": false,
          "internalType": "address",
          "name": "owner",
          "type": "address"
        },
        {
          "indexed": false,
          "internalType": "uint256",
          "name": "animalId",
          "type": "uint256"
        },
        {
          "indexed": false,
          "internalType": "uint256",
          "name": "momId",
          "type": "uint256"
        },
        {
          "indexed": false,
          "internalType": "uint256",
          "name": "dadId",
          "type": "uint256"
        },
        {
          "indexed": false,
          "internalType": "uint256",
          "name": "genes",
          "type": "uint256"
        }
      ],
      "name": "Birth",
      "type": "event"
    },
    {
      "anonymous": false,
      "inputs": [
        {
          "indexed": false,
          "internalType": "bool",
          "name": "torchPassed",
          "type": "bool"
        }
      ],
      "name": "OwnershipTransferred",
      "type": "event"
    },
    {
      "anonymous": false,
      "inputs": [
        {
          "indexed": true,
          "internalType": "address",
          "name": "from",
          "type": "address"
        },
        {
          "indexed": true,
          "internalType": "address",
          "name": "to",
          "type": "address"
        },
        {
          "indexed": true,
          "internalType": "uint256",
          "name": "tokenId",
          "type": "uint256"
        }
      ],
      "name": "Transfer",
      "type": "event"
    },
    {
      "anonymous": false,
      "inputs": [
        {
          "indexed": false,
          "internalType": "string",
          "name": "msg",
          "type": "string"
        }
      ],
      "name": "imploding",
      "type": "event"
    },
    {
      "anonymous": false,
      "inputs": [
        {
          "indexed": false,
          "internalType": "address",
          "name": "sender",
          "type": "address"
        },
        {
          "indexed": false,
          "internalType": "address",
          "name": "reciever",
          "type": "address"
        },
        {
          "indexed": false,
          "internalType": "uint256",
          "name": "amount",
          "type": "uint256"
        }
      ],
      "name": "receipt",
      "type": "event"
    },
    {
      "inputs": [],
      "name": "CREATION_LIMIT_GEN0",
      "outputs": [
        {
          "internalType": "uint256",
          "name": "",
          "type": "uint256"
        }
      ],
      "stateMutability": "view",
      "type": "function",
      "constant": true
    },
    {
      "inputs": [],
      "name": "amIOwner",
      "outputs": [
        {
          "internalType": "bool",
          "name": "",
          "type": "bool"
        }
      ],
      "stateMutability": "view",
      "type": "function",
      "constant": true
    },
    {
      "inputs": [
        {
          "internalType": "uint256",
          "name": "",
          "type": "uint256"
        }
      ],
      "name": "animalId2Owner",
      "outputs": [
        {
          "internalType": "address",
          "name": "",
          "type": "address"
        }
      ],
      "stateMutability": "view",
      "type": "function",
      "constant": true
    },
    {
      "inputs": [],
      "name": "balance",
      "outputs": [
        {
          "internalType": "uint256",
          "name": "",
          "type": "uint256"
        }
      ],
      "stateMutability": "view",
      "type": "function",
      "constant": true
    },
    {
      "inputs": [],
      "name": "implode",
      "outputs": [],
      "stateMutability": "nonpayable",
      "type": "function"
    },
    {
      "inputs": [],
      "name": "name",
      "outputs": [
        {
          "internalType": "string",
          "name": "",
          "type": "string"
        }
      ],
      "stateMutability": "view",
      "type": "function",
      "constant": true
    },
    {
      "inputs": [
        {
          "internalType": "uint256",
          "name": "amount",
          "type": "uint256"
        }
      ],
      "name": "salary",
      "outputs": [],
      "stateMutability": "nonpayable",
      "type": "function"
    },
    {
      "inputs": [],
      "name": "symbol",
      "outputs": [
        {
          "internalType": "string",
          "name": "",
          "type": "string"
        }
      ],
      "stateMutability": "view",
      "type": "function",
      "constant": true
    },
    {
      "inputs": [
        {
          "internalType": "address payable",
          "name": "newOwner",
          "type": "address"
        }
      ],
      "name": "transferOwnership",
      "outputs": [],
      "stateMutability": "nonpayable",
      "type": "function"
    },
    {
      "inputs": [
        {
          "internalType": "uint256",
          "name": "_genes",
          "type": "uint256"
        }
      ],
      "name": "createAnimalGen0",
      "outputs": [
        {
          "internalType": "uint256",
          "name": "",
          "type": "uint256"
        }
      ],
      "stateMutability": "nonpayable",
      "type": "function"
    },
    {
      "inputs": [
        {
          "internalType": "address",
          "name": "_owner",
          "type": "address"
        }
      ],
      "name": "balanceOf",
      "outputs": [
        {
          "internalType": "uint256",
          "name": "balance",
          "type": "uint256"
        }
      ],
      "stateMutability": "view",
      "type": "function",
      "constant": true
    },
    {
      "inputs": [],
      "name": "totalSupply",
      "outputs": [
        {
          "internalType": "uint256",
          "name": "total",
          "type": "uint256"
        }
      ],
      "stateMutability": "view",
      "type": "function",
      "constant": true
    },
    {
      "inputs": [
        {
          "internalType": "uint256",
          "name": "_tokenId",
          "type": "uint256"
        }
      ],
      "name": "ownerOf",
      "outputs": [
        {
          "internalType": "address",
          "name": "owner",
          "type": "address"
        }
      ],
      "stateMutability": "view",
      "type": "function",
      "constant": true
    },
    {
      "inputs": [
        {
          "internalType": "address",
          "name": "_to",
          "type": "address"
        },
        {
          "internalType": "uint256",
          "name": "_tokenId",
          "type": "uint256"
        }
      ],
      "name": "transfer",
      "outputs": [],
      "stateMutability": "nonpayable",
      "type": "function"
    }
  ],
  "bytecode": "0x6080604052600060055534801561001557600080fd5b50336000806101000a81548173ffffffffffffffffffffffffffffffffffffffff021916908373ffffffffffffffffffffffffffffffffffffffff16021790555060006001819055506112388061006d6000396000f3fe608060405234801561001057600080fd5b50600436106100ea5760003560e01c80639434a83c1161008c578063a9b6c43511610066578063a9b6c435146103d5578063b483433014610403578063b69ef8a814610421578063f2fde38b1461043f576100ea565b80639434a83c146102c257806395d89b4114610304578063a9059cbb14610387576100ea565b80634e4ab830116100c85780634e4ab8301461019a5780636352211e146101ba57806370a08231146102125780638819680f1461026a576100ea565b806306fdde03146100ef57806318160ddd146101725780633d8aa9b814610190575b600080fd5b6100f7610483565b6040518080602001828103825283818151815260200191508051906020019080838360005b8381101561013757808201518184015260208101905061011c565b50505050905090810190601f1680156101645780820380516001836020036101000a031916815260200191505b509250505060405180910390f35b61017a6104bc565b6040518082815260200191505060405180910390f35b6101986104c9565b005b6101a261060e565b60405180821515815260200191505060405180910390f35b6101e6600480360360208110156101d057600080fd5b8101908080359060200190929190505050610676565b604051808273ffffffffffffffffffffffffffffffffffffffff16815260200191505060405180910390f35b6102546004803603602081101561022857600080fd5b81019080803573ffffffffffffffffffffffffffffffffffffffff1690602001909291905050506106b3565b6040518082815260200191505060405180910390f35b6102966004803603602081101561028057600080fd5b81019080803590602001909291905050506106fc565b604051808273ffffffffffffffffffffffffffffffffffffffff16815260200191505060405180910390f35b6102ee600480360360208110156102d857600080fd5b810190808035906020019092919050505061072f565b6040518082815260200191505060405180910390f35b61030c610813565b6040518080602001828103825283818151815260200191508051906020019080838360005b8381101561034c578082015181840152602081019050610331565b50505050905090810190601f1680156103795780820380516001836020036101000a031916815260200191505b509250505060405180910390f35b6103d36004803603604081101561039d57600080fd5b81019080803573ffffffffffffffffffffffffffffffffffffffff1690602001909291908035906020019092919050505061084c565b005b610401600480360360208110156103eb57600080fd5b81019080803590602001909291905050506108e1565b005b61040b6109b2565b6040518082815260200191505060405180910390f35b6104296109b7565b6040518082815260200191505060405180910390f35b6104816004803603602081101561045557600080fd5b81019080803573ffffffffffffffffffffffffffffffffffffffff169060200190929190505050610a66565b005b6040518060400160405280600c81526020017f4372797074416e696d616c73000000000000000000000000000000000000000081525081565b6000600280549050905090565b60008054906101000a900473ffffffffffffffffffffffffffffffffffffffff1673ffffffffffffffffffffffffffffffffffffffff163373ffffffffffffffffffffffffffffffffffffffff161461056d576040517f08c379a00000000000000000000000000000000000000000000000000000000081526004018080602001828103825260248152602001806111b96024913960400191505060405180910390fd5b7f59856d07e781c7d783b2740fdea65325a51339ea46afc8d69ddc427701b021506040518080602001828103825260058152602001807f214d4f4f4200000000000000000000000000000000000000000000000000000081525060200191505060405180910390a160008054906101000a900473ffffffffffffffffffffffffffffffffffffffff1673ffffffffffffffffffffffffffffffffffffffff16ff5b60008060009054906101000a900473ffffffffffffffffffffffffffffffffffffffff1673ffffffffffffffffffffffffffffffffffffffff163373ffffffffffffffffffffffffffffffffffffffff16141561066e5760019050610673565b600090505b90565b60006003600083815260200190815260200160002060009054906101000a900473ffffffffffffffffffffffffffffffffffffffff169050919050565b6000600460008373ffffffffffffffffffffffffffffffffffffffff1673ffffffffffffffffffffffffffffffffffffffff168152602001908152602001600020549050919050565b60036020528060005260406000206000915054906101000a900473ffffffffffffffffffffffffffffffffffffffff1681565b60008060009054906101000a900473ffffffffffffffffffffffffffffffffffffffff1673ffffffffffffffffffffffffffffffffffffffff163373ffffffffffffffffffffffffffffffffffffffff16146107d6576040517f08c379a00000000000000000000000000000000000000000000000000000000081526004018080602001828103825260248152602001806111b96024913960400191505060405180910390fd5b600a600554106107e557600080fd5b600560008154809291906001019190505550600061080860008060008633610c81565b905080915050919050565b6040518060400160405280600281526020017f434100000000000000000000000000000000000000000000000000000000000081525081565b600073ffffffffffffffffffffffffffffffffffffffff168273ffffffffffffffffffffffffffffffffffffffff16141561088657600080fd5b3073ffffffffffffffffffffffffffffffffffffffff168273ffffffffffffffffffffffffffffffffffffffff1614156108bf57600080fd5b6108c93382610e37565b6108d257600080fd5b6108dd338383610ea3565b5050565b60008054906101000a900473ffffffffffffffffffffffffffffffffffffffff1673ffffffffffffffffffffffffffffffffffffffff163373ffffffffffffffffffffffffffffffffffffffff1614610985576040517f08c379a00000000000000000000000000000000000000000000000000000000081526004018080602001828103825260248152602001806111b96024913960400191505060405180910390fd5b6109af60008054906101000a900473ffffffffffffffffffffffffffffffffffffffff1682611029565b50565b600a81565b60008060009054906101000a900473ffffffffffffffffffffffffffffffffffffffff1673ffffffffffffffffffffffffffffffffffffffff163373ffffffffffffffffffffffffffffffffffffffff1614610a5e576040517f08c379a00000000000000000000000000000000000000000000000000000000081526004018080602001828103825260248152602001806111b96024913960400191505060405180910390fd5b600154905090565b60008054906101000a900473ffffffffffffffffffffffffffffffffffffffff1673ffffffffffffffffffffffffffffffffffffffff163373ffffffffffffffffffffffffffffffffffffffff1614610b0a576040517f08c379a00000000000000000000000000000000000000000000000000000000081526004018080602001828103825260248152602001806111b96024913960400191505060405180910390fd5b60008054906101000a900473ffffffffffffffffffffffffffffffffffffffff1673ffffffffffffffffffffffffffffffffffffffff168173ffffffffffffffffffffffffffffffffffffffff161415610baf576040517f08c379a00000000000000000000000000000000000000000000000000000000081526004018080602001828103825260268152602001806111dd6026913960400191505060405180910390fd5b806000806101000a81548173ffffffffffffffffffffffffffffffffffffffff021916908373ffffffffffffffffffffffffffffffffffffffff1602179055508073ffffffffffffffffffffffffffffffffffffffff1660008054906101000a900473ffffffffffffffffffffffffffffffffffffffff1673ffffffffffffffffffffffffffffffffffffffff1614610c4457fe5b7fb899c305786c4dcf61109e2307e0c618a96ab74289a0d265de5bf8839fd81ad4600160405180821515815260200191505060405180910390a150565b6000610c8b61116f565b6040518060a001604052808581526020014267ffffffffffffffff1681526020018863ffffffff1681526020018763ffffffff1681526020018661ffff16815250905060028190806001815401808255809150506001900390600052602060002090600202016000909190919091506000820151816000015560208201518160010160006101000a81548167ffffffffffffffff021916908367ffffffffffffffff16021790555060408201518160010160086101000a81548163ffffffff021916908363ffffffff160217905550606082015181600101600c6101000a81548163ffffffff021916908363ffffffff16021790555060808201518160010160106101000a81548161ffff021916908361ffff160217905550505060006002805490509050610dbc60008583610ea3565b7f0a5311bd2a6608f08a180df2ee7c5946819a649b204b554bb8e39825b2c50ad584828a8a89604051808673ffffffffffffffffffffffffffffffffffffffff1681526020018581526020018481526020018381526020018281526020019550505050505060405180910390a1809250505095945050505050565b60008273ffffffffffffffffffffffffffffffffffffffff166003600084815260200190815260200160002060009054906101000a900473ffffffffffffffffffffffffffffffffffffffff1673ffffffffffffffffffffffffffffffffffffffff1614905092915050565b600460008373ffffffffffffffffffffffffffffffffffffffff1673ffffffffffffffffffffffffffffffffffffffff16815260200190815260200160002060008154809291906001019190505550816003600083815260200190815260200160002060006101000a81548173ffffffffffffffffffffffffffffffffffffffff021916908373ffffffffffffffffffffffffffffffffffffffff160217905550600073ffffffffffffffffffffffffffffffffffffffff168373ffffffffffffffffffffffffffffffffffffffff1614610fc957600460008473ffffffffffffffffffffffffffffffffffffffff1673ffffffffffffffffffffffffffffffffffffffff16815260200190815260200160002060008154809291906001900391905055505b808273ffffffffffffffffffffffffffffffffffffffff168473ffffffffffffffffffffffffffffffffffffffff167fddf252ad1be2c89b69c2b068fc378daa952ba7f163c4a11628f55a4df523b3ef60405160405180910390a4505050565b6001548111156110a1576040517f08c379a000000000000000000000000000000000000000000000000000000000815260040180806020018281038252601d8152602001807f496e73756666696369656e742066756e647320617661696c61626c652e00000081525060200191505060405180910390fd5b806001600082825403925050819055508173ffffffffffffffffffffffffffffffffffffffff166108fc829081150290604051600060405180830381858888f193505050501580156110f7573d6000803e3d6000fd5b507f8d9acd2e8cb528c1d2827ce578faa546ba2ba1289fd3a8977268cf4f61cb2a48308383604051808473ffffffffffffffffffffffffffffffffffffffff1681526020018373ffffffffffffffffffffffffffffffffffffffff168152602001828152602001935050505060405180910390a15050565b6040518060a0016040528060008152602001600067ffffffffffffffff168152602001600063ffffffff168152602001600063ffffffff168152602001600061ffff168152509056fe4f6e6c792074686520636f6e7472616374206f776e65722063616e20646f20746861742e43616e6e6f74207472616e73666572206f776e65727368697020746f20796f757273656c662ea2646970667358221220d12514c76b3b09b32da06e4dfed95042309b4df99685ee57c9bf85080b06f2c964736f6c63430007000033",
  "immutableReferences": {},
  "source": "// SPDX-License-Identifier: MIT\r\npragma solidity 0.7.0;\r\n\r\nimport \"./IERC721.sol\";\r\nimport \"./Accountable.sol\";\r\n\r\ncontract CryptAnimal is IERC721, Accountable {\r\n\r\n    uint256 public constant CREATION_LIMIT_GEN0 = 10;\r\n    string public constant override name = \"CryptAnimals\";\r\n    string public constant override symbol = \"CA\";\r\n\r\n    event Birth(\r\n        address owner,\r\n        uint256 animalId,\r\n        uint256 momId,\r\n        uint256 dadId,\r\n        uint256 genes\r\n    );\r\n\r\n    struct Animal {\r\n        uint256 genes;\r\n        uint64 birthTime;\r\n        uint32 momId;\r\n        uint32 dadId;\r\n        uint16 generation;\r\n    }\r\n\r\n    Animal[] animals;\r\n\r\n    mapping( uint256 => address) public animalId2Owner;\r\n    mapping (address => uint256) owner2TokenCount;\r\n\r\n    uint256 gen0Population = uint256(0);\r\n\r\n    // @returns new animal ID\r\n    // @require gen0Population < CREATION_LIMIT_GEN0\r\n    function createAnimalGen0(uint256 _genes) public onlyOwner returns(uint256) {\r\n        require (gen0Population < CREATION_LIMIT_GEN0);\r\n        gen0Population++;\r\n        uint256 newAnimalId = \r\n            _createAnimal(uint256(0),uint256(0),uint256(0),_genes,msg.sender);\r\n        return newAnimalId;\r\n    }\r\n\r\n    // @returns new animal ID\r\n    function _createAnimal(\r\n        uint256 _momId,\r\n        uint256 _dadId,\r\n        uint256 _generation,\r\n        uint256 _genes,\r\n        address _owner\r\n    ) private returns (uint256) {\r\n        Animal memory _animal = Animal({\r\n            genes: _genes,\r\n            birthTime: uint64(block.timestamp),\r\n            momId: uint32(_momId),\r\n            dadId: uint32(_dadId),\r\n            generation: uint16(_generation)\r\n        });\r\n        animals.push(_animal); // 0.7.0 no longer returns length\r\n        uint256 newAnimalId = animals.length;\r\n        _transfer(address(0), _owner, newAnimalId );\r\n        emit Birth(_owner, newAnimalId, _momId, _dadId, _genes);\r\n        return newAnimalId;\r\n    }\r\n\r\n    // @returns the number of tokens in ``owner``'s account.\r\n    function balanceOf(address _owner) external view override returns (uint256 balance){\r\n        return owner2TokenCount[_owner];\r\n    }\r\n\r\n    // @returns the total number of tokens in circulation.\r\n    function totalSupply() public view override returns (uint256 total){\r\n        return animals.length;\r\n    }\r\n\r\n    // @returns the owner of the `tokenId` token.\r\n    // @notice Requirement: 'tokenId' must exist.\r\n    function ownerOf(uint256 _tokenId) external view override returns (address owner){\r\n        return animalId2Owner[_tokenId];\r\n    }\r\n\r\n    // @dev Transfers `tokenId` token from `msg.sender` to `to`.\r\n    // @notice Requirement: `to` cannot be the zero address.\r\n    // @notice Requirement: `to` can not be the contract address.\r\n    // @notice Requirement: `tokenId` token must be owned by `msg.sender`.\r\n    // @dev Emits a {Transfer} event. \r\n    function transfer(address _to, uint256 _tokenId) external override {\r\n        require(_to != address(0));\r\n        require(_to != address(this));\r\n        require(_owns(msg.sender, _tokenId));\r\n        _transfer(msg.sender, _to, _tokenId);\r\n    }\r\n    \r\n    function _transfer(address _from, address _to, uint256 _tokenId) internal {\r\n        owner2TokenCount[_to]++;\r\n        animalId2Owner[_tokenId] = _to;\r\n        if (_from != address(0)) {\r\n            owner2TokenCount[_from]--;\r\n        }\r\n        emit Transfer(_from, _to, _tokenId);\r\n    }\r\n\r\n    // @returns if claimant owns tokenId\r\n    function _owns(address _claimant, uint256 _tokenId) internal view returns (bool) {\r\n        return animalId2Owner[_tokenId] == _claimant;\r\n    }\r\n}",
  "sourcePath": "/mnt/c/Users/orbit/Documents/code/CryptoZoo/contracts/CryptAnimal.sol",
  "compiler": {
    "name": "solc",
    "version": "0.7.0+commit.9e61f92b.Emscripten.clang"
  },
  "schemaVersion": "3.2.0",
  "updatedAt": "2020-10-20T20:57:43.319Z",
  "networkType": "ethereum",
  "devdoc": {
    "kind": "dev",
    "methods": {},
    "version": 1
  },
  "userdoc": {
    "kind": "user",
    "methods": {},
    "version": 1
  }
}