{
  "contractName": "CryptAnimal",
  "abi": [
    {
      "anonymous": false,
      "inputs": [
        {
          "indexed": true,
          "internalType": "address",
          "name": "owner",
          "type": "address"
        },
        {
          "indexed": true,
          "internalType": "address",
          "name": "approved",
          "type": "address"
        },
        {
          "indexed": true,
          "internalType": "uint256",
          "name": "tokenId",
          "type": "uint256"
        }
      ],
      "name": "Approval",
      "type": "event"
    },
    {
      "anonymous": false,
      "inputs": [
        {
          "indexed": false,
          "internalType": "address",
          "name": "owner",
          "type": "address"
        },
        {
          "indexed": false,
          "internalType": "uint256",
          "name": "animalId",
          "type": "uint256"
        },
        {
          "indexed": false,
          "internalType": "uint256",
          "name": "momId",
          "type": "uint256"
        },
        {
          "indexed": false,
          "internalType": "uint256",
          "name": "dadId",
          "type": "uint256"
        },
        {
          "indexed": false,
          "internalType": "uint256",
          "name": "genes",
          "type": "uint256"
        }
      ],
      "name": "Birth",
      "type": "event"
    },
    {
      "anonymous": false,
      "inputs": [
        {
          "indexed": false,
          "internalType": "bool",
          "name": "torchPassed",
          "type": "bool"
        }
      ],
      "name": "OwnershipTransferred",
      "type": "event"
    },
    {
      "anonymous": false,
      "inputs": [
        {
          "indexed": true,
          "internalType": "address",
          "name": "from",
          "type": "address"
        },
        {
          "indexed": true,
          "internalType": "address",
          "name": "to",
          "type": "address"
        },
        {
          "indexed": true,
          "internalType": "uint256",
          "name": "tokenId",
          "type": "uint256"
        }
      ],
      "name": "Transfer",
      "type": "event"
    },
    {
      "anonymous": false,
      "inputs": [
        {
          "indexed": false,
          "internalType": "string",
          "name": "msg",
          "type": "string"
        }
      ],
      "name": "imploding",
      "type": "event"
    },
    {
      "anonymous": false,
      "inputs": [
        {
          "indexed": false,
          "internalType": "address",
          "name": "sender",
          "type": "address"
        },
        {
          "indexed": false,
          "internalType": "address",
          "name": "reciever",
          "type": "address"
        },
        {
          "indexed": false,
          "internalType": "uint256",
          "name": "amount",
          "type": "uint256"
        }
      ],
      "name": "receipt",
      "type": "event"
    },
    {
      "inputs": [],
      "name": "CREATION_LIMIT_GEN0",
      "outputs": [
        {
          "internalType": "uint256",
          "name": "",
          "type": "uint256"
        }
      ],
      "stateMutability": "view",
      "type": "function",
      "constant": true
    },
    {
      "inputs": [],
      "name": "amIOwner",
      "outputs": [
        {
          "internalType": "bool",
          "name": "",
          "type": "bool"
        }
      ],
      "stateMutability": "view",
      "type": "function",
      "constant": true
    },
    {
      "inputs": [
        {
          "internalType": "uint256",
          "name": "",
          "type": "uint256"
        }
      ],
      "name": "animalId2Owner",
      "outputs": [
        {
          "internalType": "address",
          "name": "",
          "type": "address"
        }
      ],
      "stateMutability": "view",
      "type": "function",
      "constant": true
    },
    {
      "inputs": [],
      "name": "balance",
      "outputs": [
        {
          "internalType": "uint256",
          "name": "",
          "type": "uint256"
        }
      ],
      "stateMutability": "view",
      "type": "function",
      "constant": true
    },
    {
      "inputs": [],
      "name": "implode",
      "outputs": [],
      "stateMutability": "nonpayable",
      "type": "function"
    },
    {
      "inputs": [],
      "name": "name",
      "outputs": [
        {
          "internalType": "string",
          "name": "",
          "type": "string"
        }
      ],
      "stateMutability": "view",
      "type": "function",
      "constant": true
    },
    {
      "inputs": [
        {
          "internalType": "uint256",
          "name": "amount",
          "type": "uint256"
        }
      ],
      "name": "salary",
      "outputs": [],
      "stateMutability": "nonpayable",
      "type": "function"
    },
    {
      "inputs": [],
      "name": "symbol",
      "outputs": [
        {
          "internalType": "string",
          "name": "",
          "type": "string"
        }
      ],
      "stateMutability": "view",
      "type": "function",
      "constant": true
    },
    {
      "inputs": [
        {
          "internalType": "address payable",
          "name": "newOwner",
          "type": "address"
        }
      ],
      "name": "transferOwnership",
      "outputs": [],
      "stateMutability": "nonpayable",
      "type": "function"
    },
    {
      "inputs": [
        {
          "internalType": "uint256",
          "name": "_genes",
          "type": "uint256"
        }
      ],
      "name": "createAnimalGen0",
      "outputs": [
        {
          "internalType": "uint256",
          "name": "",
          "type": "uint256"
        }
      ],
      "stateMutability": "nonpayable",
      "type": "function"
    },
    {
      "inputs": [
        {
          "internalType": "uint256",
          "name": "_Id",
          "type": "uint256"
        }
      ],
      "name": "getAnimal",
      "outputs": [
        {
          "internalType": "uint256",
          "name": "genes",
          "type": "uint256"
        },
        {
          "internalType": "uint256",
          "name": "birthTime",
          "type": "uint256"
        },
        {
          "internalType": "uint256",
          "name": "momId",
          "type": "uint256"
        },
        {
          "internalType": "uint256",
          "name": "dadId",
          "type": "uint256"
        },
        {
          "internalType": "uint256",
          "name": "generation",
          "type": "uint256"
        },
        {
          "internalType": "address",
          "name": "owner",
          "type": "address"
        }
      ],
      "stateMutability": "view",
      "type": "function",
      "constant": true
    },
    {
      "inputs": [
        {
          "internalType": "address",
          "name": "_owner",
          "type": "address"
        }
      ],
      "name": "balanceOf",
      "outputs": [
        {
          "internalType": "uint256",
          "name": "balance",
          "type": "uint256"
        }
      ],
      "stateMutability": "view",
      "type": "function",
      "constant": true
    },
    {
      "inputs": [],
      "name": "totalSupply",
      "outputs": [
        {
          "internalType": "uint256",
          "name": "total",
          "type": "uint256"
        }
      ],
      "stateMutability": "view",
      "type": "function",
      "constant": true
    },
    {
      "inputs": [
        {
          "internalType": "uint256",
          "name": "_tokenId",
          "type": "uint256"
        }
      ],
      "name": "ownerOf",
      "outputs": [
        {
          "internalType": "address",
          "name": "owner",
          "type": "address"
        }
      ],
      "stateMutability": "view",
      "type": "function",
      "constant": true
    },
    {
      "inputs": [
        {
          "internalType": "address",
          "name": "_to",
          "type": "address"
        },
        {
          "internalType": "uint256",
          "name": "_tokenId",
          "type": "uint256"
        }
      ],
      "name": "transfer",
      "outputs": [],
      "stateMutability": "nonpayable",
      "type": "function"
    }
  ],
  "bytecode": "0x6080604052600060055534801561001557600080fd5b50336000806101000a81548173ffffffffffffffffffffffffffffffffffffffff021916908373ffffffffffffffffffffffffffffffffffffffff160217905550600060018190555061160b8061006d6000396000f3fe608060405234801561001057600080fd5b50600436106100f55760003560e01c80638819680f11610097578063a9b6c43511610066578063a9b6c4351461045b578063b483433014610489578063b69ef8a8146104a7578063f2fde38b146104c5576100f5565b80638819680f146102f05780639434a83c1461034857806395d89b411461038a578063a9059cbb1461040d576100f5565b806345d3cc81116100d357806345d3cc81146101a55780634e4ab830146102205780636352211e1461024057806370a0823114610298576100f5565b806306fdde03146100fa57806318160ddd1461017d5780633d8aa9b81461019b575b600080fd5b610102610509565b6040518080602001828103825283818151815260200191508051906020019080838360005b83811015610142578082015181840152602081019050610127565b50505050905090810190601f16801561016f5780820380516001836020036101000a031916815260200191505b509250505060405180910390f35b610185610542565b6040518082815260200191505060405180910390f35b6101a361054f565b005b6101d1600480360360208110156101bb57600080fd5b8101908080359060200190929190505050610694565b604051808781526020018681526020018581526020018481526020018381526020018273ffffffffffffffffffffffffffffffffffffffff168152602001965050505050505060405180910390f35b6102286107f5565b60405180821515815260200191505060405180910390f35b61026c6004803603602081101561025657600080fd5b810190808035906020019092919050505061085d565b604051808273ffffffffffffffffffffffffffffffffffffffff16815260200191505060405180910390f35b6102da600480360360208110156102ae57600080fd5b81019080803573ffffffffffffffffffffffffffffffffffffffff16906020019092919050505061089a565b6040518082815260200191505060405180910390f35b61031c6004803603602081101561030657600080fd5b81019080803590602001909291905050506108e3565b604051808273ffffffffffffffffffffffffffffffffffffffff16815260200191505060405180910390f35b6103746004803603602081101561035e57600080fd5b8101908080359060200190929190505050610916565b6040518082815260200191505060405180910390f35b610392610a46565b6040518080602001828103825283818151815260200191508051906020019080838360005b838110156103d25780820151818401526020810190506103b7565b50505050905090810190601f1680156103ff5780820380516001836020036101000a031916815260200191505b509250505060405180910390f35b6104596004803603604081101561042357600080fd5b81019080803573ffffffffffffffffffffffffffffffffffffffff16906020019092919080359060200190929190505050610a7f565b005b6104876004803603602081101561047157600080fd5b8101908080359060200190929190505050610c15565b005b610491610ce6565b6040518082815260200191505060405180910390f35b6104af610ceb565b6040518082815260200191505060405180910390f35b610507600480360360208110156104db57600080fd5b81019080803573ffffffffffffffffffffffffffffffffffffffff169060200190929190505050610d9a565b005b6040518060400160405280600c81526020017f4372797074416e696d616c73000000000000000000000000000000000000000081525081565b6000600280549050905090565b60008054906101000a900473ffffffffffffffffffffffffffffffffffffffff1673ffffffffffffffffffffffffffffffffffffffff163373ffffffffffffffffffffffffffffffffffffffff16146105f3576040517f08c379a000000000000000000000000000000000000000000000000000000000815260040180806020018281038252602481526020018061151e6024913960400191505060405180910390fd5b7f59856d07e781c7d783b2740fdea65325a51339ea46afc8d69ddc427701b021506040518080602001828103825260058152602001807f214d4f4f4200000000000000000000000000000000000000000000000000000081525060200191505060405180910390a160008054906101000a900473ffffffffffffffffffffffffffffffffffffffff1673ffffffffffffffffffffffffffffffffffffffff16ff5b6000806000806000806002805490508710610717576040517f08c379a000000000000000000000000000000000000000000000000000000000815260040180806020018281038252601f8152602001807f54686174206d616e7920616e696d616c7320646f206e6f742065786973742e0081525060200191505060405180910390fd5b60006002888154811061072657fe5b906000526020600020906002020190508060010160009054906101000a900467ffffffffffffffff1667ffffffffffffffff1695508060010160089054906101000a900463ffffffff1663ffffffff16945080600101600c9054906101000a900463ffffffff1663ffffffff1693508060010160109054906101000a900461ffff1661ffff169250806000015496506003600089815260200190815260200160002060009054906101000a900473ffffffffffffffffffffffffffffffffffffffff1691505091939550919395565b60008060009054906101000a900473ffffffffffffffffffffffffffffffffffffffff1673ffffffffffffffffffffffffffffffffffffffff163373ffffffffffffffffffffffffffffffffffffffff161415610855576001905061085a565b600090505b90565b60006003600083815260200190815260200160002060009054906101000a900473ffffffffffffffffffffffffffffffffffffffff169050919050565b6000600460008373ffffffffffffffffffffffffffffffffffffffff1673ffffffffffffffffffffffffffffffffffffffff168152602001908152602001600020549050919050565b60036020528060005260406000206000915054906101000a900473ffffffffffffffffffffffffffffffffffffffff1681565b60008060009054906101000a900473ffffffffffffffffffffffffffffffffffffffff1673ffffffffffffffffffffffffffffffffffffffff163373ffffffffffffffffffffffffffffffffffffffff16146109bd576040517f08c379a000000000000000000000000000000000000000000000000000000000815260040180806020018281038252602481526020018061151e6024913960400191505060405180910390fd5b600a60055410610a18576040517f08c379a00000000000000000000000000000000000000000000000000000000081526004018080602001828103825260338152602001806115426033913960400191505060405180910390fd5b6005600081548092919060010191905055506000610a3b60008060008633610fb5565b905080915050919050565b6040518060400160405280600281526020017f434100000000000000000000000000000000000000000000000000000000000081525081565b600073ffffffffffffffffffffffffffffffffffffffff168273ffffffffffffffffffffffffffffffffffffffff161415610b05576040517f08c379a000000000000000000000000000000000000000000000000000000000815260040180806020018281038252602e8152602001806114f0602e913960400191505060405180910390fd5b3073ffffffffffffffffffffffffffffffffffffffff168273ffffffffffffffffffffffffffffffffffffffff161415610ba7576040517f08c379a000000000000000000000000000000000000000000000000000000000815260040180806020018281038252601f8152602001807f43616e6e6f74207472616e7366657220746f2044617020616464726573732e0081525060200191505060405180910390fd5b610bb1338261116e565b610c06576040517f08c379a000000000000000000000000000000000000000000000000000000000815260040180806020018281038252603b815260200180611575603b913960400191505060405180910390fd5b610c113383836111da565b5050565b60008054906101000a900473ffffffffffffffffffffffffffffffffffffffff1673ffffffffffffffffffffffffffffffffffffffff163373ffffffffffffffffffffffffffffffffffffffff1614610cb9576040517f08c379a000000000000000000000000000000000000000000000000000000000815260040180806020018281038252602481526020018061151e6024913960400191505060405180910390fd5b610ce360008054906101000a900473ffffffffffffffffffffffffffffffffffffffff1682611360565b50565b600a81565b60008060009054906101000a900473ffffffffffffffffffffffffffffffffffffffff1673ffffffffffffffffffffffffffffffffffffffff163373ffffffffffffffffffffffffffffffffffffffff1614610d92576040517f08c379a000000000000000000000000000000000000000000000000000000000815260040180806020018281038252602481526020018061151e6024913960400191505060405180910390fd5b600154905090565b60008054906101000a900473ffffffffffffffffffffffffffffffffffffffff1673ffffffffffffffffffffffffffffffffffffffff163373ffffffffffffffffffffffffffffffffffffffff1614610e3e576040517f08c379a000000000000000000000000000000000000000000000000000000000815260040180806020018281038252602481526020018061151e6024913960400191505060405180910390fd5b60008054906101000a900473ffffffffffffffffffffffffffffffffffffffff1673ffffffffffffffffffffffffffffffffffffffff168173ffffffffffffffffffffffffffffffffffffffff161415610ee3576040517f08c379a00000000000000000000000000000000000000000000000000000000081526004018080602001828103825260268152602001806115b06026913960400191505060405180910390fd5b806000806101000a81548173ffffffffffffffffffffffffffffffffffffffff021916908373ffffffffffffffffffffffffffffffffffffffff1602179055508073ffffffffffffffffffffffffffffffffffffffff1660008054906101000a900473ffffffffffffffffffffffffffffffffffffffff1673ffffffffffffffffffffffffffffffffffffffff1614610f7857fe5b7fb899c305786c4dcf61109e2307e0c618a96ab74289a0d265de5bf8839fd81ad4600160405180821515815260200191505060405180910390a150565b6000610fbf6114a6565b6040518060a001604052808581526020014267ffffffffffffffff1681526020018863ffffffff1681526020018763ffffffff1681526020018661ffff16815250905060028190806001815401808255809150506001900390600052602060002090600202016000909190919091506000820151816000015560208201518160010160006101000a81548167ffffffffffffffff021916908367ffffffffffffffff16021790555060408201518160010160086101000a81548163ffffffff021916908363ffffffff160217905550606082015181600101600c6101000a81548163ffffffff021916908363ffffffff16021790555060808201518160010160106101000a81548161ffff021916908361ffff1602179055505050600060016002805490500390506110f3600085836111da565b7f0a5311bd2a6608f08a180df2ee7c5946819a649b204b554bb8e39825b2c50ad584828a8a89604051808673ffffffffffffffffffffffffffffffffffffffff1681526020018581526020018481526020018381526020018281526020019550505050505060405180910390a1809250505095945050505050565b60008273ffffffffffffffffffffffffffffffffffffffff166003600084815260200190815260200160002060009054906101000a900473ffffffffffffffffffffffffffffffffffffffff1673ffffffffffffffffffffffffffffffffffffffff1614905092915050565b600460008373ffffffffffffffffffffffffffffffffffffffff1673ffffffffffffffffffffffffffffffffffffffff16815260200190815260200160002060008154809291906001019190505550816003600083815260200190815260200160002060006101000a81548173ffffffffffffffffffffffffffffffffffffffff021916908373ffffffffffffffffffffffffffffffffffffffff160217905550600073ffffffffffffffffffffffffffffffffffffffff168373ffffffffffffffffffffffffffffffffffffffff161461130057600460008473ffffffffffffffffffffffffffffffffffffffff1673ffffffffffffffffffffffffffffffffffffffff16815260200190815260200160002060008154809291906001900391905055505b808273ffffffffffffffffffffffffffffffffffffffff168473ffffffffffffffffffffffffffffffffffffffff167fddf252ad1be2c89b69c2b068fc378daa952ba7f163c4a11628f55a4df523b3ef60405160405180910390a4505050565b6001548111156113d8576040517f08c379a000000000000000000000000000000000000000000000000000000000815260040180806020018281038252601d8152602001807f496e73756666696369656e742066756e647320617661696c61626c652e00000081525060200191505060405180910390fd5b806001600082825403925050819055508173ffffffffffffffffffffffffffffffffffffffff166108fc829081150290604051600060405180830381858888f1935050505015801561142e573d6000803e3d6000fd5b507f8d9acd2e8cb528c1d2827ce578faa546ba2ba1289fd3a8977268cf4f61cb2a48308383604051808473ffffffffffffffffffffffffffffffffffffffff1681526020018373ffffffffffffffffffffffffffffffffffffffff168152602001828152602001935050505060405180910390a15050565b6040518060a0016040528060008152602001600067ffffffffffffffff168152602001600063ffffffff168152602001600063ffffffff168152602001600061ffff168152509056fe43616e6e6f74207472616e7366657220746f20616464726573732830292c206f72206275726e20616e696d616c2e4f6e6c792074686520636f6e7472616374206f776e65722063616e20646f20746861742e417474656d7074696e6720746f206578636565642067656e65726174696f6e203020706f70756c6174696f6e206c696d69742e417474656d7074656420746f207472616e7366657220616e20616e696d616c207468652072657175657374657220646f6573206e6f74206f776e2e43616e6e6f74207472616e73666572206f776e65727368697020746f20796f757273656c662ea2646970667358221220ab85cb4e6fbef1cfa8e43bb538508cb52f0c0beddb231dbf2ec1a3da9dc721ed64736f6c63430007000033",
  "immutableReferences": {},
  "source": "// SPDX-License-Identifier: MIT\r\npragma solidity 0.7.0;\r\n\r\nimport \"./IERC721.sol\";\r\nimport \"./Accountable.sol\";\r\n\r\ncontract CryptAnimal is IERC721, Accountable {\r\n\r\n    uint256 public constant CREATION_LIMIT_GEN0 = 10;\r\n    string public constant override name = \"CryptAnimals\";\r\n    string public constant override symbol = \"CA\";\r\n\r\n    event Birth(\r\n        address owner,\r\n        uint256 animalId,\r\n        uint256 momId,\r\n        uint256 dadId,\r\n        uint256 genes\r\n    );\r\n\r\n    struct Animal {\r\n        uint256 genes;\r\n        uint64 birthTime;\r\n        uint32 momId;\r\n        uint32 dadId;\r\n        uint16 generation;\r\n    }\r\n\r\n    Animal[] animals;\r\n\r\n    mapping( uint256 => address) public animalId2Owner;\r\n    mapping (address => uint256) owner2TokenCount;\r\n\r\n    uint256 gen0Population = uint256(0);\r\n\r\n    // @returns new animal ID\r\n    // @require gen0Population < CREATION_LIMIT_GEN0\r\n    function createAnimalGen0(uint256 _genes) public onlyOwner returns(uint256) {\r\n        require (gen0Population < CREATION_LIMIT_GEN0, \r\n            \"Attempting to exceed generation 0 population limit.\");\r\n        gen0Population++;\r\n        uint256 newAnimalId = \r\n            _createAnimal(uint256(0),uint256(0),uint256(0),_genes,msg.sender);\r\n        return newAnimalId;\r\n    }\r\n\r\n    // @returns new animal ID\r\n    function _createAnimal(\r\n        uint256 _momId,\r\n        uint256 _dadId,\r\n        uint256 _generation,\r\n        uint256 _genes,\r\n        address _owner\r\n    ) private returns (uint256) {\r\n        Animal memory _animal = Animal({\r\n            genes: _genes,\r\n            birthTime: uint64(block.timestamp),\r\n            momId: uint32(_momId),\r\n            dadId: uint32(_dadId),\r\n            generation: uint16(_generation)\r\n        });\r\n        animals.push(_animal); // 0.7.0 no longer returns length\r\n        uint256 newAnimalId = animals.length - 1;\r\n        _transfer(address(0), _owner, newAnimalId );\r\n        emit Birth(_owner, newAnimalId, _momId, _dadId, _genes);\r\n        return newAnimalId;\r\n    }\r\n\r\n    // @returns all animal data given Id\r\n    // @require animal with given _Id exists\r\n    function getAnimal(uint256 _Id) public view returns (\r\n        uint256 genes,\r\n        uint256 birthTime,\r\n        uint256 momId,\r\n        uint256 dadId,\r\n        uint256 generation,\r\n        address owner\r\n    ){\r\n        require (_Id < animals.length, \r\n            \"That many animals do not exist.\");\r\n\r\n        Animal storage animal = animals[_Id];\r\n\r\n        birthTime = uint256(animal.birthTime);\r\n        momId = uint256(animal.momId);\r\n        dadId = uint256(animal.dadId);\r\n        generation = uint256(animal.generation);\r\n        genes = animal.genes;\r\n        owner = animalId2Owner[_Id];\r\n    }\r\n\r\n    // @returns the number of tokens in ``owner``'s account.\r\n    function balanceOf(address _owner) external view override returns (uint256 balance){\r\n        return owner2TokenCount[_owner];\r\n    }\r\n\r\n    // @returns the total number of tokens in circulation.\r\n    function totalSupply() public view override returns (uint256 total){\r\n        return animals.length;\r\n    }\r\n\r\n    // @returns the owner of the `tokenId` token.\r\n    // @notice Requirement: 'tokenId' must exist.\r\n    function ownerOf(uint256 _tokenId) external view override returns (address owner){\r\n        return animalId2Owner[_tokenId];\r\n    }\r\n\r\n    // @dev Transfers `tokenId` token from `msg.sender` to `to`.\r\n    // @notice Requirement: `to` cannot be the zero address.\r\n    // @notice Requirement: `to` can not be the contract address.\r\n    // @notice Requirement: `tokenId` token must be owned by `msg.sender`.\r\n    // @dev Emits a {Transfer} event. \r\n    function transfer(address _to, uint256 _tokenId) external override {\r\n        require(_to != address(0), \"Cannot transfer to address(0), or burn animal.\");\r\n        require(_to != address(this), \"Cannot transfer to Dap address.\");\r\n        require(_owns(msg.sender, _tokenId), \r\n            \"Attempted to transfer an animal the requester does not own.\");\r\n        _transfer(msg.sender, _to, _tokenId);\r\n    }\r\n    \r\n    function _transfer(address _from, address _to, uint256 _tokenId) internal {\r\n        owner2TokenCount[_to]++;\r\n        animalId2Owner[_tokenId] = _to;\r\n        if (_from != address(0)) {\r\n            owner2TokenCount[_from]--;\r\n        }\r\n        emit Transfer(_from, _to, _tokenId);\r\n    }\r\n\r\n    // @returns if claimant owns tokenId\r\n    function _owns(address _claimant, uint256 _tokenId) internal view returns (bool) {\r\n        return animalId2Owner[_tokenId] == _claimant;\r\n    }\r\n}",
  "sourcePath": "/mnt/c/Users/orbit/Documents/code/CryptoZoo/contracts/CryptAnimal.sol",
  "compiler": {
    "name": "solc",
    "version": "0.7.0+commit.9e61f92b.Emscripten.clang"
  },
  "schemaVersion": "3.2.0",
  "updatedAt": "2020-10-21T23:26:06.607Z",
  "networkType": "ethereum",
  "devdoc": {
    "kind": "dev",
    "methods": {},
    "version": 1
  },
  "userdoc": {
    "kind": "user",
    "methods": {},
    "version": 1
  }
}