{
  "contractName": "CryptAnimal",
  "abi": [
    {
      "anonymous": false,
      "inputs": [
        {
          "indexed": true,
          "internalType": "address",
          "name": "owner",
          "type": "address"
        },
        {
          "indexed": true,
          "internalType": "address",
          "name": "approved",
          "type": "address"
        },
        {
          "indexed": true,
          "internalType": "uint256",
          "name": "tokenId",
          "type": "uint256"
        }
      ],
      "name": "Approval",
      "type": "event"
    },
    {
      "anonymous": false,
      "inputs": [
        {
          "indexed": true,
          "internalType": "address",
          "name": "from",
          "type": "address"
        },
        {
          "indexed": true,
          "internalType": "address",
          "name": "to",
          "type": "address"
        },
        {
          "indexed": true,
          "internalType": "uint256",
          "name": "tokenId",
          "type": "uint256"
        }
      ],
      "name": "Transfer",
      "type": "event"
    },
    {
      "constant": true,
      "inputs": [
        {
          "internalType": "uint256",
          "name": "",
          "type": "uint256"
        }
      ],
      "name": "animal2Owner",
      "outputs": [
        {
          "internalType": "address",
          "name": "",
          "type": "address"
        }
      ],
      "payable": false,
      "stateMutability": "view",
      "type": "function"
    },
    {
      "constant": true,
      "inputs": [],
      "name": "name",
      "outputs": [
        {
          "internalType": "string",
          "name": "",
          "type": "string"
        }
      ],
      "payable": false,
      "stateMutability": "view",
      "type": "function"
    },
    {
      "constant": true,
      "inputs": [],
      "name": "symbol",
      "outputs": [
        {
          "internalType": "string",
          "name": "",
          "type": "string"
        }
      ],
      "payable": false,
      "stateMutability": "view",
      "type": "function"
    },
    {
      "constant": true,
      "inputs": [
        {
          "internalType": "address",
          "name": "_owner",
          "type": "address"
        }
      ],
      "name": "balanceOf",
      "outputs": [
        {
          "internalType": "uint256",
          "name": "balance",
          "type": "uint256"
        }
      ],
      "payable": false,
      "stateMutability": "view",
      "type": "function"
    },
    {
      "constant": true,
      "inputs": [],
      "name": "totalSupply",
      "outputs": [
        {
          "internalType": "uint256",
          "name": "total",
          "type": "uint256"
        }
      ],
      "payable": false,
      "stateMutability": "view",
      "type": "function"
    },
    {
      "constant": true,
      "inputs": [
        {
          "internalType": "uint256",
          "name": "_tokenId",
          "type": "uint256"
        }
      ],
      "name": "ownerOf",
      "outputs": [
        {
          "internalType": "address",
          "name": "owner",
          "type": "address"
        }
      ],
      "payable": false,
      "stateMutability": "view",
      "type": "function"
    },
    {
      "constant": false,
      "inputs": [
        {
          "internalType": "address",
          "name": "_to",
          "type": "address"
        },
        {
          "internalType": "uint256",
          "name": "_tokenId",
          "type": "uint256"
        }
      ],
      "name": "transfer",
      "outputs": [],
      "payable": false,
      "stateMutability": "nonpayable",
      "type": "function"
    }
  ],
  "bytecode": "0x608060405234801561001057600080fd5b50610707806100206000396000f3fe608060405234801561001057600080fd5b506004361061007d5760003560e01c806370a082311161005b57806370a08231146101915780637ba72db0146101e957806395d89b4114610257578063a9059cbb146102da5761007d565b806306fdde031461008257806318160ddd146101055780636352211e14610123575b600080fd5b61008a610328565b6040518080602001828103825283818151815260200191508051906020019080838360005b838110156100ca5780820151818401526020810190506100af565b50505050905090810190601f1680156100f75780820380516001836020036101000a031916815260200191505b509250505060405180910390f35b61010d610361565b6040518082815260200191505060405180910390f35b61014f6004803603602081101561013957600080fd5b810190808035906020019092919050505061036d565b604051808273ffffffffffffffffffffffffffffffffffffffff1673ffffffffffffffffffffffffffffffffffffffff16815260200191505060405180910390f35b6101d3600480360360208110156101a757600080fd5b81019080803573ffffffffffffffffffffffffffffffffffffffff1690602001909291905050506103aa565b6040518082815260200191505060405180910390f35b610215600480360360208110156101ff57600080fd5b81019080803590602001909291905050506103f3565b604051808273ffffffffffffffffffffffffffffffffffffffff1673ffffffffffffffffffffffffffffffffffffffff16815260200191505060405180910390f35b61025f610426565b6040518080602001828103825283818151815260200191508051906020019080838360005b8381101561029f578082015181840152602081019050610284565b50505050905090810190601f1680156102cc5780820380516001836020036101000a031916815260200191505b509250505060405180910390f35b610326600480360360408110156102f057600080fd5b81019080803573ffffffffffffffffffffffffffffffffffffffff1690602001909291908035906020019092919050505061045f565b005b6040518060400160405280600c81526020017f4372797074416e696d616c73000000000000000000000000000000000000000081525081565b60008080549050905090565b60006001600083815260200190815260200160002060009054906101000a900473ffffffffffffffffffffffffffffffffffffffff169050919050565b6000600260008373ffffffffffffffffffffffffffffffffffffffff1673ffffffffffffffffffffffffffffffffffffffff168152602001908152602001600020549050919050565b60016020528060005260406000206000915054906101000a900473ffffffffffffffffffffffffffffffffffffffff1681565b6040518060400160405280600281526020017f434100000000000000000000000000000000000000000000000000000000000081525081565b600073ffffffffffffffffffffffffffffffffffffffff168273ffffffffffffffffffffffffffffffffffffffff16141561049957600080fd5b3073ffffffffffffffffffffffffffffffffffffffff168273ffffffffffffffffffffffffffffffffffffffff1614156104d257600080fd5b3373ffffffffffffffffffffffffffffffffffffffff166001600083815260200190815260200160002060009054906101000a900473ffffffffffffffffffffffffffffffffffffffff1673ffffffffffffffffffffffffffffffffffffffff161461053d57600080fd5b6105483383836105a7565b808273ffffffffffffffffffffffffffffffffffffffff163373ffffffffffffffffffffffffffffffffffffffff167fddf252ad1be2c89b69c2b068fc378daa952ba7f163c4a11628f55a4df523b3ef60405160405180910390a45050565b816001600083815260200190815260200160002060006101000a81548173ffffffffffffffffffffffffffffffffffffffff021916908373ffffffffffffffffffffffffffffffffffffffff160217905550600073ffffffffffffffffffffffffffffffffffffffff168373ffffffffffffffffffffffffffffffffffffffff161461067e57600260008473ffffffffffffffffffffffffffffffffffffffff1673ffffffffffffffffffffffffffffffffffffffff16815260200190815260200160002060008154809291906001900391905055505b600260008373ffffffffffffffffffffffffffffffffffffffff1673ffffffffffffffffffffffffffffffffffffffff1681526020019081526020016000206000815480929190600101919050555050505056fea265627a7a723158203bf84494117b0a4aaf7ff2d46feda037c28d0aecb0e04e7042420167d0fe188f64736f6c63430005100032",
  "source": "// SPDX-License-Identifier: MIT\r\npragma solidity >=0.4.22 <0.8.0;\r\n\r\nimport \"./IERC721.sol\";\r\n\r\ncontract CryptAnimal is IERC721 {\r\n\r\n    string public constant name = \"CryptAnimals\";\r\n    string public constant symbol = \"CA\";\r\n\r\n    struct Animal {\r\n        uint256 genes;\r\n        uint64 birthTime;\r\n        uint32 momId;\r\n        uint32 dadId;\r\n        uint16 generation;\r\n    }\r\n\r\n    Animal[] animals;\r\n\r\n    mapping( uint256 => address) public animal2Owner;\r\n    mapping (address => uint256) owner2TokenCount;\r\n\r\n    function balanceOf(address _owner) external view returns (uint256 balance){\r\n        //Returns the number of tokens in ``owner``'s account.\r\n        return owner2TokenCount[_owner];\r\n    }\r\n\r\n    function totalSupply() public view returns (uint256 total){\r\n        // Returns the total number of tokens in circulation.\r\n        return animals.length;\r\n    }\r\n\r\n    function ownerOf(uint256 _tokenId) external view returns (address owner){\r\n        // Returns the owner of the `tokenId` token.\r\n        // Requirement: 'tokenId' must exist.\r\n        return animal2Owner[_tokenId];\r\n    }\r\n\r\n    function transfer(address _to, uint256 _tokenId) external {\r\n        // Transfers `tokenId` token from `msg.sender` to `to`.\r\n        // Requirement: `to` cannot be the zero address.\r\n        // Requirement: `to` can not be the contract address.\r\n        // Requirement: `tokenId` token must be owned by `msg.sender`.\r\n        // Emits a {Transfer} event. \r\n        require(_to != address(0));\r\n        require(_to != address(this));\r\n        require(animal2Owner[_tokenId] == msg.sender);\r\n        move(msg.sender, _to, _tokenId);\r\n        emit Transfer(msg.sender, _to, _tokenId);\r\n    }\r\n    function move(address _from, address _to, uint256 _tokenId) internal {\r\n        // Prevent re-entry attack during processing.\r\n        animal2Owner[_tokenId] = _to;\r\n        if(_from != address(0)){  \r\n            owner2TokenCount[_from]--;\r\n        } // wrt. minting.\r\n        owner2TokenCount[_to]++;\r\n    }\r\n}",
  "sourcePath": "/mnt/c/Users/orbit/Documents/code/CryptoZoo/contracts/CryptAnimal.sol",
  "compiler": {
    "name": "solc",
    "version": "0.5.16+commit.9c3226ce.Emscripten.clang"
  },
  "schemaVersion": "3.2.0",
  "updatedAt": "2020-10-19T02:44:34.643Z",
  "networkType": "ethereum",
  "devdoc": {
    "methods": {}
  },
  "userdoc": {
    "methods": {}
  }
}