{
  "contractName": "CryptAnimal",
  "abi": [
    {
      "anonymous": false,
      "inputs": [
        {
          "indexed": true,
          "internalType": "address",
          "name": "owner",
          "type": "address"
        },
        {
          "indexed": true,
          "internalType": "address",
          "name": "approved",
          "type": "address"
        },
        {
          "indexed": true,
          "internalType": "uint256",
          "name": "tokenId",
          "type": "uint256"
        }
      ],
      "name": "Approval",
      "type": "event"
    },
    {
      "anonymous": false,
      "inputs": [
        {
          "indexed": false,
          "internalType": "address",
          "name": "owner",
          "type": "address"
        },
        {
          "indexed": false,
          "internalType": "uint256",
          "name": "animalId",
          "type": "uint256"
        },
        {
          "indexed": false,
          "internalType": "uint256",
          "name": "momId",
          "type": "uint256"
        },
        {
          "indexed": false,
          "internalType": "uint256",
          "name": "dadId",
          "type": "uint256"
        },
        {
          "indexed": false,
          "internalType": "uint256",
          "name": "genes",
          "type": "uint256"
        }
      ],
      "name": "Birth",
      "type": "event"
    },
    {
      "anonymous": false,
      "inputs": [
        {
          "indexed": false,
          "internalType": "bool",
          "name": "torchPassed",
          "type": "bool"
        }
      ],
      "name": "OwnershipTransferred",
      "type": "event"
    },
    {
      "anonymous": false,
      "inputs": [
        {
          "indexed": true,
          "internalType": "address",
          "name": "from",
          "type": "address"
        },
        {
          "indexed": true,
          "internalType": "address",
          "name": "to",
          "type": "address"
        },
        {
          "indexed": true,
          "internalType": "uint256",
          "name": "tokenId",
          "type": "uint256"
        }
      ],
      "name": "Transfer",
      "type": "event"
    },
    {
      "anonymous": false,
      "inputs": [
        {
          "indexed": false,
          "internalType": "string",
          "name": "msg",
          "type": "string"
        }
      ],
      "name": "imploding",
      "type": "event"
    },
    {
      "anonymous": false,
      "inputs": [
        {
          "indexed": false,
          "internalType": "address",
          "name": "sender",
          "type": "address"
        },
        {
          "indexed": false,
          "internalType": "address",
          "name": "reciever",
          "type": "address"
        },
        {
          "indexed": false,
          "internalType": "uint256",
          "name": "amount",
          "type": "uint256"
        }
      ],
      "name": "receipt",
      "type": "event"
    },
    {
      "inputs": [],
      "name": "amIOwner",
      "outputs": [
        {
          "internalType": "bool",
          "name": "",
          "type": "bool"
        }
      ],
      "stateMutability": "view",
      "type": "function"
    },
    {
      "inputs": [
        {
          "internalType": "uint256",
          "name": "",
          "type": "uint256"
        }
      ],
      "name": "animalId2Owner",
      "outputs": [
        {
          "internalType": "address",
          "name": "",
          "type": "address"
        }
      ],
      "stateMutability": "view",
      "type": "function"
    },
    {
      "inputs": [],
      "name": "balance",
      "outputs": [
        {
          "internalType": "uint256",
          "name": "",
          "type": "uint256"
        }
      ],
      "stateMutability": "view",
      "type": "function"
    },
    {
      "inputs": [],
      "name": "implode",
      "outputs": [],
      "stateMutability": "nonpayable",
      "type": "function"
    },
    {
      "inputs": [],
      "name": "name",
      "outputs": [
        {
          "internalType": "string",
          "name": "",
          "type": "string"
        }
      ],
      "stateMutability": "view",
      "type": "function"
    },
    {
      "inputs": [
        {
          "internalType": "uint256",
          "name": "amount",
          "type": "uint256"
        }
      ],
      "name": "salary",
      "outputs": [],
      "stateMutability": "nonpayable",
      "type": "function"
    },
    {
      "inputs": [],
      "name": "symbol",
      "outputs": [
        {
          "internalType": "string",
          "name": "",
          "type": "string"
        }
      ],
      "stateMutability": "view",
      "type": "function"
    },
    {
      "inputs": [
        {
          "internalType": "address payable",
          "name": "newOwner",
          "type": "address"
        }
      ],
      "name": "transferOwnership",
      "outputs": [],
      "stateMutability": "nonpayable",
      "type": "function"
    },
    {
      "inputs": [
        {
          "internalType": "uint256",
          "name": "_genes",
          "type": "uint256"
        }
      ],
      "name": "createAnimalGen0",
      "outputs": [],
      "stateMutability": "nonpayable",
      "type": "function"
    },
    {
      "inputs": [
        {
          "internalType": "address",
          "name": "_owner",
          "type": "address"
        }
      ],
      "name": "balanceOf",
      "outputs": [
        {
          "internalType": "uint256",
          "name": "balance",
          "type": "uint256"
        }
      ],
      "stateMutability": "view",
      "type": "function"
    },
    {
      "inputs": [],
      "name": "totalSupply",
      "outputs": [
        {
          "internalType": "uint256",
          "name": "total",
          "type": "uint256"
        }
      ],
      "stateMutability": "view",
      "type": "function"
    },
    {
      "inputs": [
        {
          "internalType": "uint256",
          "name": "_tokenId",
          "type": "uint256"
        }
      ],
      "name": "ownerOf",
      "outputs": [
        {
          "internalType": "address",
          "name": "owner",
          "type": "address"
        }
      ],
      "stateMutability": "view",
      "type": "function"
    },
    {
      "inputs": [
        {
          "internalType": "address",
          "name": "_to",
          "type": "address"
        },
        {
          "internalType": "uint256",
          "name": "_tokenId",
          "type": "uint256"
        }
      ],
      "name": "transfer",
      "outputs": [],
      "stateMutability": "nonpayable",
      "type": "function"
    }
  ],
  "bytecode": "0x608060405234801561001057600080fd5b50336000806101000a81548173ffffffffffffffffffffffffffffffffffffffff021916908373ffffffffffffffffffffffffffffffffffffffff1602179055506000600181905550610faa806100686000396000f3fe608060405234801561001057600080fd5b50600436106100cf5760003560e01c80638819680f1161008c578063a9059cbb11610066578063a9059cbb14610358578063a9b6c435146103a6578063b69ef8a8146103d4578063f2fde38b146103f2576100cf565b80638819680f1461024f5780639434a83c146102a757806395d89b41146102d5576100cf565b806306fdde03146100d457806318160ddd146101575780633d8aa9b8146101755780634e4ab8301461017f5780636352211e1461019f57806370a08231146101f7575b600080fd5b6100dc610436565b6040518080602001828103825283818151815260200191508051906020019080838360005b8381101561011c578082015181840152602081019050610101565b50505050905090810190601f1680156101495780820380516001836020036101000a031916815260200191505b509250505060405180910390f35b61015f61046f565b6040518082815260200191505060405180910390f35b61017d61047c565b005b6101876105c1565b60405180821515815260200191505060405180910390f35b6101cb600480360360208110156101b557600080fd5b8101908080359060200190929190505050610629565b604051808273ffffffffffffffffffffffffffffffffffffffff16815260200191505060405180910390f35b6102396004803603602081101561020d57600080fd5b81019080803573ffffffffffffffffffffffffffffffffffffffff169060200190929190505050610666565b6040518082815260200191505060405180910390f35b61027b6004803603602081101561026557600080fd5b81019080803590602001909291905050506106af565b604051808273ffffffffffffffffffffffffffffffffffffffff16815260200191505060405180910390f35b6102d3600480360360208110156102bd57600080fd5b81019080803590602001909291905050506106e2565b005b6102dd610789565b6040518080602001828103825283818151815260200191508051906020019080838360005b8381101561031d578082015181840152602081019050610302565b50505050905090810190601f16801561034a5780820380516001836020036101000a031916815260200191505b509250505060405180910390f35b6103a46004803603604081101561036e57600080fd5b81019080803573ffffffffffffffffffffffffffffffffffffffff169060200190929190803590602001909291905050506107c2565b005b6103d2600480360360208110156103bc57600080fd5b8101908080359060200190929190505050610857565b005b6103dc610928565b6040518082815260200191505060405180910390f35b6104346004803603602081101561040857600080fd5b81019080803573ffffffffffffffffffffffffffffffffffffffff1690602001909291905050506109d7565b005b6040518060400160405280600c81526020017f4372797074416e696d616c73000000000000000000000000000000000000000081525081565b6000600280549050905090565b60008054906101000a900473ffffffffffffffffffffffffffffffffffffffff1673ffffffffffffffffffffffffffffffffffffffff163373ffffffffffffffffffffffffffffffffffffffff1614610520576040517f08c379a0000000000000000000000000000000000000000000000000000000008152600401808060200182810382526024815260200180610f2b6024913960400191505060405180910390fd5b7f59856d07e781c7d783b2740fdea65325a51339ea46afc8d69ddc427701b021506040518080602001828103825260058152602001807f214d4f4f4200000000000000000000000000000000000000000000000000000081525060200191505060405180910390a160008054906101000a900473ffffffffffffffffffffffffffffffffffffffff1673ffffffffffffffffffffffffffffffffffffffff16ff5b60008060009054906101000a900473ffffffffffffffffffffffffffffffffffffffff1673ffffffffffffffffffffffffffffffffffffffff163373ffffffffffffffffffffffffffffffffffffffff1614156106215760019050610626565b600090505b90565b60006003600083815260200190815260200160002060009054906101000a900473ffffffffffffffffffffffffffffffffffffffff169050919050565b6000600460008373ffffffffffffffffffffffffffffffffffffffff1673ffffffffffffffffffffffffffffffffffffffff168152602001908152602001600020549050919050565b60036020528060005260406000206000915054906101000a900473ffffffffffffffffffffffffffffffffffffffff1681565b60008054906101000a900473ffffffffffffffffffffffffffffffffffffffff1673ffffffffffffffffffffffffffffffffffffffff163373ffffffffffffffffffffffffffffffffffffffff1614610786576040517f08c379a0000000000000000000000000000000000000000000000000000000008152600401808060200182810382526024815260200180610f2b6024913960400191505060405180910390fd5b50565b6040518060400160405280600281526020017f434100000000000000000000000000000000000000000000000000000000000081525081565b600073ffffffffffffffffffffffffffffffffffffffff168273ffffffffffffffffffffffffffffffffffffffff1614156107fc57600080fd5b3073ffffffffffffffffffffffffffffffffffffffff168273ffffffffffffffffffffffffffffffffffffffff16141561083557600080fd5b61083f3382610bf2565b61084857600080fd5b610853338383610c5e565b5050565b60008054906101000a900473ffffffffffffffffffffffffffffffffffffffff1673ffffffffffffffffffffffffffffffffffffffff163373ffffffffffffffffffffffffffffffffffffffff16146108fb576040517f08c379a0000000000000000000000000000000000000000000000000000000008152600401808060200182810382526024815260200180610f2b6024913960400191505060405180910390fd5b61092560008054906101000a900473ffffffffffffffffffffffffffffffffffffffff1682610de4565b50565b60008060009054906101000a900473ffffffffffffffffffffffffffffffffffffffff1673ffffffffffffffffffffffffffffffffffffffff163373ffffffffffffffffffffffffffffffffffffffff16146109cf576040517f08c379a0000000000000000000000000000000000000000000000000000000008152600401808060200182810382526024815260200180610f2b6024913960400191505060405180910390fd5b600154905090565b60008054906101000a900473ffffffffffffffffffffffffffffffffffffffff1673ffffffffffffffffffffffffffffffffffffffff163373ffffffffffffffffffffffffffffffffffffffff1614610a7b576040517f08c379a0000000000000000000000000000000000000000000000000000000008152600401808060200182810382526024815260200180610f2b6024913960400191505060405180910390fd5b60008054906101000a900473ffffffffffffffffffffffffffffffffffffffff1673ffffffffffffffffffffffffffffffffffffffff168173ffffffffffffffffffffffffffffffffffffffff161415610b20576040517f08c379a0000000000000000000000000000000000000000000000000000000008152600401808060200182810382526026815260200180610f4f6026913960400191505060405180910390fd5b806000806101000a81548173ffffffffffffffffffffffffffffffffffffffff021916908373ffffffffffffffffffffffffffffffffffffffff1602179055508073ffffffffffffffffffffffffffffffffffffffff1660008054906101000a900473ffffffffffffffffffffffffffffffffffffffff1673ffffffffffffffffffffffffffffffffffffffff1614610bb557fe5b7fb899c305786c4dcf61109e2307e0c618a96ab74289a0d265de5bf8839fd81ad4600160405180821515815260200191505060405180910390a150565b60008273ffffffffffffffffffffffffffffffffffffffff166003600084815260200190815260200160002060009054906101000a900473ffffffffffffffffffffffffffffffffffffffff1673ffffffffffffffffffffffffffffffffffffffff1614905092915050565b600460008373ffffffffffffffffffffffffffffffffffffffff1673ffffffffffffffffffffffffffffffffffffffff16815260200190815260200160002060008154809291906001019190505550816003600083815260200190815260200160002060006101000a81548173ffffffffffffffffffffffffffffffffffffffff021916908373ffffffffffffffffffffffffffffffffffffffff160217905550600073ffffffffffffffffffffffffffffffffffffffff168373ffffffffffffffffffffffffffffffffffffffff1614610d8457600460008473ffffffffffffffffffffffffffffffffffffffff1673ffffffffffffffffffffffffffffffffffffffff16815260200190815260200160002060008154809291906001900391905055505b808273ffffffffffffffffffffffffffffffffffffffff168473ffffffffffffffffffffffffffffffffffffffff167fddf252ad1be2c89b69c2b068fc378daa952ba7f163c4a11628f55a4df523b3ef60405160405180910390a4505050565b600154811115610e5c576040517f08c379a000000000000000000000000000000000000000000000000000000000815260040180806020018281038252601d8152602001807f496e73756666696369656e742066756e647320617661696c61626c652e00000081525060200191505060405180910390fd5b806001600082825403925050819055508173ffffffffffffffffffffffffffffffffffffffff166108fc829081150290604051600060405180830381858888f19350505050158015610eb2573d6000803e3d6000fd5b507f8d9acd2e8cb528c1d2827ce578faa546ba2ba1289fd3a8977268cf4f61cb2a48308383604051808473ffffffffffffffffffffffffffffffffffffffff1681526020018373ffffffffffffffffffffffffffffffffffffffff168152602001828152602001935050505060405180910390a1505056fe4f6e6c792074686520636f6e7472616374206f776e65722063616e20646f20746861742e43616e6e6f74207472616e73666572206f776e65727368697020746f20796f757273656c662ea26469706673582212204bed1827995ed1256ff2fa19ad93617ba6c1873ebfc7673951537aace7103a0b64736f6c63430007000033",
  "immutableReferences": {},
  "source": "// SPDX-License-Identifier: MIT\r\npragma solidity 0.7.0;\r\n\r\nimport \"./IERC721.sol\";\r\nimport \"./Accountable.sol\";\r\n\r\ncontract CryptAnimal is IERC721, Accountable {\r\n\r\n    string public constant override name = \"CryptAnimals\";\r\n    string public constant override symbol = \"CA\";\r\n\r\n    event Birth(\r\n        address owner,\r\n        uint256 animalId,\r\n        uint256 momId,\r\n        uint256 dadId,\r\n        uint256 genes\r\n    );\r\n\r\n    struct Animal {\r\n        uint256 genes;\r\n        uint64 birthTime;\r\n        uint32 momId;\r\n        uint32 dadId;\r\n        uint16 generation;\r\n    }\r\n\r\n    Animal[] animals;\r\n\r\n    mapping( uint256 => address) public animalId2Owner;\r\n    mapping (address => uint256) owner2TokenCount;\r\n\r\n    function createAnimalGen0(uint256 _genes) public onlyOwner {\r\n\r\n    }\r\n\r\n    // @returns new animal ID\r\n    function _createAnimal(\r\n        uint256 _momId,\r\n        uint256 _dadId,\r\n        uint256 _generation,\r\n        uint256 _genes,\r\n        address _owner\r\n    ) private returns (uint256) {\r\n        Animal memory _animal = Animal({\r\n            genes: _genes,\r\n            birthTime: uint64(block.timestamp),\r\n            momId: uint32(_momId),\r\n            dadId: uint32(_dadId),\r\n            generation: uint16(_generation)\r\n        });\r\n        animals.push(_animal); // 0.7.0 no longer returns length\r\n        uint256 newAnimalId = animals.length;\r\n        _transfer(address(0), _owner, newAnimalId );\r\n        emit Birth(_owner, newAnimalId, _momId, _dadId, _genes);\r\n    }\r\n\r\n    // @returns the number of tokens in ``owner``'s account.\r\n    function balanceOf(address _owner) external view override returns (uint256 balance){\r\n        return owner2TokenCount[_owner];\r\n    }\r\n\r\n    // @returns the total number of tokens in circulation.\r\n    function totalSupply() public view override returns (uint256 total){\r\n        return animals.length;\r\n    }\r\n\r\n    // @returns the owner of the `tokenId` token.\r\n    // @notice Requirement: 'tokenId' must exist.\r\n    function ownerOf(uint256 _tokenId) external view override returns (address owner){\r\n        return animalId2Owner[_tokenId];\r\n    }\r\n\r\n    // @dev Transfers `tokenId` token from `msg.sender` to `to`.\r\n    // @notice Requirement: `to` cannot be the zero address.\r\n    // @notice Requirement: `to` can not be the contract address.\r\n    // @notice Requirement: `tokenId` token must be owned by `msg.sender`.\r\n    // @dev Emits a {Transfer} event. \r\n    function transfer(address _to, uint256 _tokenId) external override {\r\n        require(_to != address(0));\r\n        require(_to != address(this));\r\n        require(_owns(msg.sender, _tokenId));\r\n        _transfer(msg.sender, _to, _tokenId);\r\n    }\r\n    \r\n    function _transfer(address _from, address _to, uint256 _tokenId) internal {\r\n        owner2TokenCount[_to]++;\r\n        animalId2Owner[_tokenId] = _to;\r\n        if (_from != address(0)) {\r\n            owner2TokenCount[_from]--;\r\n        }\r\n        emit Transfer(_from, _to, _tokenId);\r\n    }\r\n\r\n    // @returns if claimant owns tokenId\r\n    function _owns(address _claimant, uint256 _tokenId) internal view returns (bool) {\r\n        return animalId2Owner[_tokenId] == _claimant;\r\n    }\r\n}",
  "sourcePath": "/mnt/c/Users/orbit/Documents/code/CryptoZoo/contracts/CryptAnimal.sol",
  "compiler": {
    "name": "solc",
    "version": "0.7.0+commit.9e61f92b.Emscripten.clang"
  },
  "schemaVersion": "3.2.0",
  "updatedAt": "2020-10-20T20:18:14.148Z",
  "devdoc": {
    "kind": "dev",
    "methods": {},
    "version": 1
  },
  "userdoc": {
    "kind": "user",
    "methods": {},
    "version": 1
  }
}