{
  "contractName": "Mortal",
  "abi": [
    {
      "anonymous": false,
      "inputs": [
        {
          "indexed": false,
          "internalType": "bool",
          "name": "torchPassed",
          "type": "bool"
        }
      ],
      "name": "OwnershipTransferred",
      "type": "event"
    },
    {
      "anonymous": false,
      "inputs": [
        {
          "indexed": false,
          "internalType": "string",
          "name": "msg",
          "type": "string"
        }
      ],
      "name": "imploding",
      "type": "event"
    },
    {
      "inputs": [],
      "name": "amIOwner",
      "outputs": [
        {
          "internalType": "bool",
          "name": "",
          "type": "bool"
        }
      ],
      "stateMutability": "view",
      "type": "function"
    },
    {
      "inputs": [
        {
          "internalType": "address payable",
          "name": "newOwner",
          "type": "address"
        }
      ],
      "name": "transferOwnership",
      "outputs": [],
      "stateMutability": "nonpayable",
      "type": "function"
    },
    {
      "inputs": [],
      "name": "implode",
      "outputs": [],
      "stateMutability": "nonpayable",
      "type": "function"
    }
  ],
  "bytecode": "0x6080604052336000806101000a81548173ffffffffffffffffffffffffffffffffffffffff021916908373ffffffffffffffffffffffffffffffffffffffff160217905550610505806100536000396000f3fe608060405234801561001057600080fd5b50600436106100415760003560e01c80633d8aa9b8146100465780634e4ab83014610050578063f2fde38b14610072575b600080fd5b61004e6100b6565b005b6100586101fd565b604051808215151515815260200191505060405180910390f35b6100b46004803603602081101561008857600080fd5b81019080803573ffffffffffffffffffffffffffffffffffffffff169060200190929190505050610265565b005b6000809054906101000a900473ffffffffffffffffffffffffffffffffffffffff1673ffffffffffffffffffffffffffffffffffffffff163373ffffffffffffffffffffffffffffffffffffffff161461015b576040517f08c379a00000000000000000000000000000000000000000000000000000000081526004018080602001828103825260248152602001806104866024913960400191505060405180910390fd5b7f59856d07e781c7d783b2740fdea65325a51339ea46afc8d69ddc427701b021506040518080602001828103825260058152602001807f214d4f4f4200000000000000000000000000000000000000000000000000000081525060200191505060405180910390a16000809054906101000a900473ffffffffffffffffffffffffffffffffffffffff1673ffffffffffffffffffffffffffffffffffffffff16ff5b60008060009054906101000a900473ffffffffffffffffffffffffffffffffffffffff1673ffffffffffffffffffffffffffffffffffffffff163373ffffffffffffffffffffffffffffffffffffffff16141561025d5760019050610262565b600090505b90565b6000809054906101000a900473ffffffffffffffffffffffffffffffffffffffff1673ffffffffffffffffffffffffffffffffffffffff163373ffffffffffffffffffffffffffffffffffffffff161461030a576040517f08c379a00000000000000000000000000000000000000000000000000000000081526004018080602001828103825260248152602001806104866024913960400191505060405180910390fd5b6000809054906101000a900473ffffffffffffffffffffffffffffffffffffffff1673ffffffffffffffffffffffffffffffffffffffff168173ffffffffffffffffffffffffffffffffffffffff1614156103b0576040517f08c379a00000000000000000000000000000000000000000000000000000000081526004018080602001828103825260268152602001806104aa6026913960400191505060405180910390fd5b806000806101000a81548173ffffffffffffffffffffffffffffffffffffffff021916908373ffffffffffffffffffffffffffffffffffffffff1602179055508073ffffffffffffffffffffffffffffffffffffffff166000809054906101000a900473ffffffffffffffffffffffffffffffffffffffff1673ffffffffffffffffffffffffffffffffffffffff161461044657fe5b7fb899c305786c4dcf61109e2307e0c618a96ab74289a0d265de5bf8839fd81ad46001604051808215151515815260200191505060405180910390a15056fe4f6e6c792074686520636f6e7472616374206f776e65722063616e20646f20746861742e43616e6e6f74207472616e73666572206f776e65727368697020746f20796f757273656c662ea2646970667358221220f7381d220e0e4892ec927430b3d99b3317200d2ad2938b2c194817f73b00c8f964736f6c63430006000033",
  "source": "pragma solidity 0.6.0;\r\nimport \"./Ownable.sol\";\r\n// SPDX-License-Identifier: UNLICENSED\r\n\r\ncontract Mortal is Ownable{\r\n    \r\n    event imploding(string msg);\r\n    \r\n    function implode() public onlyOwner {\r\n        emit imploding('!MOOB');\r\n        selfdestruct(owner);\r\n    }\r\n}",
  "sourcePath": "/mnt/c/Users/orbit/Documents/code/CryptoZoo/contracts/Mortal.sol",
  "compiler": {
    "name": "solc",
    "version": "0.6.0+commit.26b70077.Emscripten.clang"
  },
  "schemaVersion": "3.2.0",
  "updatedAt": "2020-10-24T16:06:17.670Z",
  "devdoc": {
    "methods": {}
  },
  "userdoc": {
    "methods": {}
  }
}