{
  "contractName": "Ownable",
  "abi": [
    {
      "inputs": [],
      "stateMutability": "nonpayable",
      "type": "constructor"
    },
    {
      "anonymous": false,
      "inputs": [
        {
          "indexed": false,
          "internalType": "bool",
          "name": "torchPassed",
          "type": "bool"
        }
      ],
      "name": "OwnershipTransferred",
      "type": "event"
    },
    {
      "inputs": [],
      "name": "amIOwner",
      "outputs": [
        {
          "internalType": "bool",
          "name": "",
          "type": "bool"
        }
      ],
      "stateMutability": "view",
      "type": "function"
    },
    {
      "inputs": [
        {
          "internalType": "address payable",
          "name": "newOwner",
          "type": "address"
        }
      ],
      "name": "transferOwnership",
      "outputs": [],
      "stateMutability": "nonpayable",
      "type": "function"
    }
  ],
  "bytecode": "0x608060405234801561001057600080fd5b50336000806101000a81548173ffffffffffffffffffffffffffffffffffffffff021916908373ffffffffffffffffffffffffffffffffffffffff1602179055506103a9806100606000396000f3fe608060405234801561001057600080fd5b50600436106100365760003560e01c80634e4ab8301461003b578063f2fde38b1461005d575b600080fd5b6100436100a1565b604051808215151515815260200191505060405180910390f35b61009f6004803603602081101561007357600080fd5b81019080803573ffffffffffffffffffffffffffffffffffffffff169060200190929190505050610109565b005b60008060009054906101000a900473ffffffffffffffffffffffffffffffffffffffff1673ffffffffffffffffffffffffffffffffffffffff163373ffffffffffffffffffffffffffffffffffffffff1614156101015760019050610106565b600090505b90565b6000809054906101000a900473ffffffffffffffffffffffffffffffffffffffff1673ffffffffffffffffffffffffffffffffffffffff163373ffffffffffffffffffffffffffffffffffffffff16146101ae576040517f08c379a000000000000000000000000000000000000000000000000000000000815260040180806020018281038252602481526020018061032a6024913960400191505060405180910390fd5b6000809054906101000a900473ffffffffffffffffffffffffffffffffffffffff1673ffffffffffffffffffffffffffffffffffffffff168173ffffffffffffffffffffffffffffffffffffffff161415610254576040517f08c379a000000000000000000000000000000000000000000000000000000000815260040180806020018281038252602681526020018061034e6026913960400191505060405180910390fd5b806000806101000a81548173ffffffffffffffffffffffffffffffffffffffff021916908373ffffffffffffffffffffffffffffffffffffffff1602179055508073ffffffffffffffffffffffffffffffffffffffff166000809054906101000a900473ffffffffffffffffffffffffffffffffffffffff1673ffffffffffffffffffffffffffffffffffffffff16146102ea57fe5b7fb899c305786c4dcf61109e2307e0c618a96ab74289a0d265de5bf8839fd81ad46001604051808215151515815260200191505060405180910390a15056fe4f6e6c792074686520636f6e7472616374206f776e65722063616e20646f20746861742e43616e6e6f74207472616e73666572206f776e65727368697020746f20796f757273656c662ea264697066735822122046b99e52d886246f23323cce22043a8066478ab9d6ec19deddc95d4c1b2dbe6c64736f6c63430006000033",
  "source": "pragma solidity 0.6.0;\r\n// SPDX-License-Identifier: UNLICENSED\r\n\r\ncontract Ownable {\r\n    \r\n    address payable internal owner;\r\n    \r\n    event OwnershipTransferred (bool torchPassed);\r\n    \r\n    modifier onlyOwner(){\r\n        require(msg.sender == owner,'Only the contract owner can do that.');\r\n        _;\r\n    }\r\n    \r\n    constructor() public {\r\n        owner = msg.sender;\r\n    }\r\n    \r\n    function amIOwner() public view returns (bool) {\r\n        if (msg.sender == owner){\r\n            return true;\r\n        } else {\r\n            return false;\r\n        }\r\n    }\r\n    \r\n    function transferOwnership(address payable newOwner) public onlyOwner {\r\n        require(newOwner != owner, 'Cannot transfer ownership to yourself.');\r\n        owner = newOwner;\r\n        assert(owner == newOwner); // revert if failed to assign.\r\n        emit OwnershipTransferred(true); // Otherwise signal success.\r\n    }\r\n    \r\n}",
  "sourcePath": "/mnt/c/Users/orbit/Documents/code/CryptoZoo/contracts/Ownable.sol",
  "compiler": {
    "name": "solc",
    "version": "0.6.0+commit.26b70077.Emscripten.clang"
  },
  "schemaVersion": "3.2.0",
  "updatedAt": "2020-12-02T03:39:45.913Z",
  "devdoc": {
    "methods": {}
  },
  "userdoc": {
    "methods": {}
  }
}